:040000007BEF04F09E
:08000800046ED8CF05F0E0CF33
:1000100006F00001E9CF0CF0EACF07F0E1CF08F0DD
:10002000E2CF09F0D9CF0AF0DACF0BF0F3CF12F01C
:10003000F4CF13F0FACF14F000C00EF001C00FF0AF
:1000400002C010F003C011F0F2AA2AEF00F0F2B4DF
:10005000D6EF01F00EC000F00FC001F010C002F0AA
:1000600011C003F00CC0E9FF07C0EAFF078E08C00B
:10007000E1FF09C0E2FF0AC0D9FF0BC0DAFF12C0DE
:10008000F3FF13C0F4FF14C0FAFF045006C0E0FFF2
:1000900005C0D8FF1000546A526A0A0E536E516AA6
:1000A000506A4F6A4E6A4C504D1005E1006A016A71
:1000B000026A036A3FD15450542A036A4C24E96E01
:1000C0004D500320EA6EEFCF55F055502D080DE14D
:1000D000010E526E5450542A036A4C24E96E4D505E
:1000E0000320EA6EEFCF55F00DD055502B080AE1F2
:1000F0005450542A036A4C24E96E4D500320EA6E92
:10010000EFCF55F055502F08D8B0FCD055503908D6
:10011000D8A0F8D05550300821E1036A54504C243F
:10012000E96E4D500320EA6EEF5078080AE0036A4A
:1001300054504C24E96E4D500320EA6EEF5058089D
:100140000DE1100E536E542A5450542A036A4C2465
:10015000E96E4D500320EA6EEFCF55F053500A0878
:1001600044E155502F0840E2555039083DE3D890FE
:100170004E34576E4F34586E5034596E51345A6E57
:100180004E34006E4F34016E5034026E5134036EA3
:1001900000360136023603360036013602360336A3
:1001A000F80E0016575000265850012259500222CE
:1001B0005A50032203C051F002C050F001C04FF06A
:1001C00000C04EF0300E555C4E26000E4F225022DD
:1001D00051225450542A036A4C24E96E4D50032096
:1001E000EA6EEFCF55F0BDD78DD053501008D8A48C
:1001F00089D05550600806E255507A0803E35550FF
:10020000DF0B01D05550556E55502F0803E2555065
:10021000390807E255504008D8B074D05550460808
:1002200071E355502F082EE2555039082BE34E3418
:10023000576E4F34586E5034596E51345A6E57368B
:10024000583659365A365736583659365A3657363A
:10025000583659365A36F00E5716300E555C57241C
:10026000006E000E5820016E000E5920026E000E26
:100270005A20036E516E02C050F001C04FF000C012
:100280004EF02AD04E34576E4F34586E5034596E5B
:1002900051345A6E5736583659365A3657365836BC
:1002A00059365A365736583659365A36F00E57168A
:1002B000410E555C0A0F5724006E000E5820016E47
:1002C000000E5920026E000E5A20516E02C050F0EE
:1002D00001C04FF000C04EF05450542A036A4C2421
:1002E000E96E4D500320EA6EEFCF55F0555060088F
:1002F00006E255507A0803E35550DF0B01D0555004
:10030000556E82D753500A080DE1522C0BD04E1E69
:100310004F1E501E511E4E2AD8B44F2AD8B4502A10
:10032000D8B4512A4EC000F04FC001F050C002F0C6
:1003300051C003F057EF02F053505518800B576E21
:1003400053AE05D0521E531E522AD8B4532A55AE6E
:1003500005D0541E551E542AD8B4552A016A026A83
:10036000006A036A555002E1545018E0100E566EB0
:10037000D89052365336003603365550035C02E1AE
:100380005450005C07E35450005ED8A0030655505B
:10039000035ED88001360236562EEAD757AE05D016
:1003A000011E021E012AD8B4022A1200010E2326C1
:1003B0002452D8A4CBD02350020801E2236A235050
:1003C00005E0010A0AE0030A0FE014D096908D8040
:1003D00096928D9296948D940DD096928D8296944D
:1003E0008D9496908D9006D096948D8496928D9251
:1003F00096908D9081AC12D0235005E0010A06E062
:10040000030A07E008D02A0E256E05D0300E256EAF
:1004100002D0230E256E0A0E246E3BD081AA12D084
:10042000235005E0010A06E0030A07E008D0370E72
:10043000256E05D0380E256E02D0390E256E0A0EB7
:10044000246E27D081A812D0235005E0010A06E0CF
:10045000030A07E008D0340E256E05D0350E256E50
:1004600002D0360E256E0A0E246E13D081A611D04E
:10047000235005E0010A06E0030A07E008D0310E28
:10048000256E05D0320E256E02D0330E256E0A0E73
:10049000246E2550230803E1010E266E276A25509D
:1004A0002A0834E1266A4D6A280E4C6EF4D503C042
:1004B0004FF002C04EF001C04DF000C04CF05E0E97
:1004C0001D5C506E000E1E58516E536E50C052F09F
:1004D000556A020E546E30DF02C003F001C000F016
:1004E00002C001F0026A036A01AE02D002060306EE
:1004F00000504C5C006E01504D58016E02504E5839
:1005000003504F5801C022F000C021F0262C1CD00F
:1005100025505A0819E02550230816E025502A08CE
:1005200013E0036A2750280FE96E000E0320EA6EDD
:1005300025C0EFFF010E2726036A2750280FE96E1A
:10054000000E0320EA6EEF6A5A0E256E245202E076
:10055000010E245EF294F2942AEF00F00C54656DC3
:1005600070657261747572613A0A256C69206F4317
:1005700000000C416C746572617220706172613AA6
:100580000A257300EA6A420EE96EEF500EE0010E92
:10059000016E006A002EFED7012EFBD74A0E006EB8
:1005A000002EFED700D0EF2EF2D7120049B002D0B5
:1005B0008C9801D08C88959849B202D08C9A01D041
:1005C0008C8A959A49B402D08C9C01D08C8C959CD5
:1005D00049B602D08C9E01D08C8E959E00008C86F0
:1005E000959600D08C96959612004A6A9588000ED2
:1005F00083B8010E4A12958A000E83BA010E006E6E
:10060000D890003600504A12958C000E83BC010E23
:10061000006E00360036FC0E001600504A12958E11
:10062000000E83BE010E006E003600360036F80E56
:10063000001600504A124AC001F012009588958AAF
:10064000958C958E8C84959400008C8695960000F0
:10065000CCDF01C049F08C96959600008C8695966B
:100660000000C3DF01C048F08C9695969598959A46
:10067000959C959E4938006EF00E0016005048106B
:10068000016E49EF03F09596959295948C92959210
:10069000D5D701C048F001BEFBD7465202E18C928B
:1006A00001D08C82959200008C94959400008C96D9
:1006B00095964738486E0F0E481648C049F076DFC9
:1006C00047500F0B486E496E71DF1200280E396ECD
:1006D0000C0E3A6E010E3B6E060E3C6E8C96959695
:1006E0008C9295928C9495949598959A959C959EBC
:1006F0009596959295940F0E426E44DF010E386EDA
:100700003850030808E3030E496E50DF050E426EB1
:1007100039DF382AF5D7020E496E48DF050E426EE2
:1007200031DF386A385003080FE3036A3850390F55
:10073000E96E000E0320EA6EEFCF3DF0466A3DC041
:1007400047F0A1DF382AEED796EF04F0432C01D012
:1007500003D0400E446E01D0446A010E425C442630
:1007600044508009456E466A476E8DDF1200415045
:10077000070A07E00B0A0AE0060A10E0020A14E082
:1007800018D0010E426E436EE1DF18D0466A010EAA
:10079000476E79DF020E426EF5DE10D0010E426E1A
:1007A000020E436ED3DF0AD0466A100E476E6BDF2F
:1007B00005D0010E466E41C047F065DF120009000A
:1007C000F6CF39F0F7CF3AF0F5CF41F0D0DF39C0AE
:1007D000F6FF3AC0F7FF382EF2D71200EACF40F00A
:1007E000E9CF3FF039AE08D03F8E3FA83F2A381EF0
:1007F000391E382AD8B4392A3938F0093B6E3B26DD
:10080000E20F3C6E320F3E6E39500F0B3C263C26F9
:100810003E26E90F3D6E3D263D2638380F0B3D261E
:100820003E263D363E363E1E3E3638500F0B3E26A7
:100830003B36070E3A6E0A0E3D063E26FDE33C06A9
:100840003D26FDE33B063C26FDE33A063B26FDE361
:10085000EA6A3A0EE96E070E3F143F9CED523F14D0
:1008600007E13FB8EE523FB803D0200E006E20D013
:10087000E926000EEA22E9503E0803E1EA5201E1CE
:100880003F8CEF50006E08E13FBC06D03FB81BD054
:100890003FB602D0200E0BD03FAE06D02D0E006E1C
:1008A000ED503F9C3F9E04D03F863F98300E00267F
:1008B000EACF39F0E9CF38F000C041F058DF39C055
:1008C000EAFF38C0E9FFEE503FACD5D7DDEF04F0CA
:1008D000EF520FE0EACF39F0E9CF38F0EFCF41F037
:1008E00046DF39C0EAFF38C0E9FFE92AD8B4EA2A6E
:1008F000EFD7F1EF04F0F86AD09E078E1E6A1D6AEA
:10090000206A1F6A226A216A236A246A5A0E256EA7
:10091000266A276AC150C00B0F09C16E070EB46E5C
:10092000176A186A300E286E296AD0D6C150C00BDB
:100930000E09C16EC050C00BC06EC08EC280800E4A
:10094000D56EF28AC00EF212000E016EC250C30BB9
:100950000110C26E100E006E002EFED70000C28283
:10096000C2B2FED7C3CF1DF0C4CF1EF05E0E1D5C19
:10097000386E000E1E58396E166AF2BE168EF29E42
:10098000536E38C052F0556A020E546ED5DC16BE56
:10099000F28E015021241F6E02502220206E5C0E28
:1009A000F66E050EF76E0E0E386E09DF100EE96E4C
:1009B00020C039F01FC038F011D76D0EF66E050E4D
:1009C000F76E030E386EFBDE262C0FD0720EF66E1D
:1009D000050EF76E0F0E386EF2DEEA6A280EE96E2B
:1009E00077D7C80E426ECEDDEFD7C80E426ECADD95
:0409F000B6D7030073
:020000040030CA
:0E00000000C0380E0087A1000FC00FE00F40B7
:00000001FF
;PIC18F4550
;CRC=FEB6  CREATED="05-nov-17 21:22"
